{
  "contractName": "BiddingSystem",
  "abi": [
    {
      "inputs": [
        {
          "internalType": "address",
          "name": "_tenderFactoryAddress",
          "type": "address"
        }
      ],
      "stateMutability": "nonpayable",
      "type": "constructor"
    },
    {
      "anonymous": false,
      "inputs": [
        {
          "indexed": true,
          "internalType": "uint256",
          "name": "tenderId",
          "type": "uint256"
        },
        {
          "indexed": true,
          "internalType": "uint256",
          "name": "bidId",
          "type": "uint256"
        }
      ],
      "name": "BidInvalidated",
      "type": "event"
    },
    {
      "anonymous": false,
      "inputs": [
        {
          "indexed": true,
          "internalType": "uint256",
          "name": "tenderId",
          "type": "uint256"
        },
        {
          "indexed": true,
          "internalType": "uint256",
          "name": "bidId",
          "type": "uint256"
        },
        {
          "indexed": false,
          "internalType": "address",
          "name": "bidder",
          "type": "address"
        }
      ],
      "name": "BidSubmitted",
      "type": "event"
    },
    {
      "inputs": [
        {
          "internalType": "uint256",
          "name": "",
          "type": "uint256"
        }
      ],
      "name": "bidCountPerTender",
      "outputs": [
        {
          "internalType": "uint256",
          "name": "",
          "type": "uint256"
        }
      ],
      "stateMutability": "view",
      "type": "function"
    },
    {
      "inputs": [
        {
          "internalType": "uint256",
          "name": "",
          "type": "uint256"
        },
        {
          "internalType": "uint256",
          "name": "",
          "type": "uint256"
        }
      ],
      "name": "bids",
      "outputs": [
        {
          "internalType": "uint256",
          "name": "id",
          "type": "uint256"
        },
        {
          "internalType": "uint256",
          "name": "tenderId",
          "type": "uint256"
        },
        {
          "internalType": "address",
          "name": "bidder",
          "type": "address"
        },
        {
          "internalType": "uint256",
          "name": "amount",
          "type": "uint256"
        },
        {
          "internalType": "string",
          "name": "proposalHash",
          "type": "string"
        },
        {
          "internalType": "uint256",
          "name": "timestamp",
          "type": "uint256"
        },
        {
          "internalType": "bool",
          "name": "isValid",
          "type": "bool"
        }
      ],
      "stateMutability": "view",
      "type": "function"
    },
    {
      "inputs": [],
      "name": "owner",
      "outputs": [
        {
          "internalType": "address",
          "name": "",
          "type": "address"
        }
      ],
      "stateMutability": "view",
      "type": "function"
    },
    {
      "inputs": [],
      "name": "tenderFactory",
      "outputs": [
        {
          "internalType": "contract TenderFactory",
          "name": "",
          "type": "address"
        }
      ],
      "stateMutability": "view",
      "type": "function"
    },
    {
      "inputs": [
        {
          "internalType": "uint256",
          "name": "_tenderId",
          "type": "uint256"
        },
        {
          "internalType": "uint256",
          "name": "_amount",
          "type": "uint256"
        },
        {
          "internalType": "string",
          "name": "_proposalHash",
          "type": "string"
        }
      ],
      "name": "submitBid",
      "outputs": [
        {
          "internalType": "uint256",
          "name": "",
          "type": "uint256"
        }
      ],
      "stateMutability": "nonpayable",
      "type": "function"
    },
    {
      "inputs": [
        {
          "internalType": "uint256",
          "name": "_tenderId",
          "type": "uint256"
        },
        {
          "internalType": "uint256",
          "name": "_bidId",
          "type": "uint256"
        }
      ],
      "name": "getBid",
      "outputs": [
        {
          "internalType": "uint256",
          "name": "id",
          "type": "uint256"
        },
        {
          "internalType": "uint256",
          "name": "tenderId",
          "type": "uint256"
        },
        {
          "internalType": "address",
          "name": "bidder",
          "type": "address"
        },
        {
          "internalType": "uint256",
          "name": "amount",
          "type": "uint256"
        },
        {
          "internalType": "string",
          "name": "proposalHash",
          "type": "string"
        },
        {
          "internalType": "uint256",
          "name": "timestamp",
          "type": "uint256"
        },
        {
          "internalType": "bool",
          "name": "isValid",
          "type": "bool"
        }
      ],
      "stateMutability": "view",
      "type": "function"
    },
    {
      "inputs": [
        {
          "internalType": "uint256",
          "name": "_tenderId",
          "type": "uint256"
        },
        {
          "internalType": "uint256",
          "name": "_bidId",
          "type": "uint256"
        }
      ],
      "name": "invalidateBid",
      "outputs": [],
      "stateMutability": "nonpayable",
      "type": "function"
    },
    {
      "inputs": [
        {
          "internalType": "uint256",
          "name": "_tenderId",
          "type": "uint256"
        }
      ],
      "name": "getBidCount",
      "outputs": [
        {
          "internalType": "uint256",
          "name": "",
          "type": "uint256"
        }
      ],
      "stateMutability": "view",
      "type": "function"
    }
  ],
  "bytecode": "0x608060405234801561000f575f80fd5b50604051610cf7380380610cf783398101604081905261002e91610060565b5f8054336001600160a01b031991821617909155600180549091166001600160a01b039290921691909117905561008d565b5f60208284031215610070575f80fd5b81516001600160a01b0381168114610086575f80fd5b9392505050565b610c5d8061009a5f395ff3fe608060405234801561000f575f80fd5b5060043610610085575f3560e01c80637b3c4baa116100585780637b3c4baa146101095780638da5cb5b1461011c578063b4b5514614610146578063f61629ce14610165575f80fd5b806314c60bdd14610089578063582c7ffd146100af57806372f53352146100d5578063744d3411146100ea575b5f80fd5b61009c610097366004610854565b610178565b6040519081526020015b60405180910390f35b6100c26100bd3660046108e0565b610474565b6040516100a69796959493929190610922565b6100e86100e33660046108e0565b61057b565b005b61009c6100f8366004610987565b5f9081526003602052604090205490565b6100c26101173660046108e0565b61070e565b5f5461012e906001600160a01b031681565b6040516001600160a01b0390911681526020016100a6565b61009c610154366004610987565b60036020525f908152604090205481565b60015461012e906001600160a01b031681565b6001546040516302c2e12f60e11b8152600481018590525f9182918291829182916001600160a01b031690630585c25e906024015f60405180830381865afa1580156101c6573d5f803e3d5ffd5b505050506040513d5f823e601f3d908101601f191682016040526101ed91908101906109fc565b98505097505096509650505050816102435760405162461bcd60e51b815260206004820152601460248201527354656e646572206973206e6f742061637469766560601b60448201526064015b60405180910390fd5b80156102915760405162461bcd60e51b815260206004820152601b60248201527f54656e64657220697320616c726561647920636f6e636c756465640000000000604482015260640161023a565b8242106102e05760405162461bcd60e51b815260206004820152601a60248201527f54656e64657220646561646c696e652068617320706173736564000000000000604482015260640161023a565b838711156103305760405162461bcd60e51b815260206004820181905260248201527f42696420616d6f756e7420657863656564732074656e64657220627564676574604482015260640161023a565b5f8881526003602052604081208054908261034a83610ac1565b9190505590506040518060e001604052808281526020018a8152602001336001600160a01b031681526020018981526020018881526020014281526020016001151581525060025f8b81526020019081526020015f205f8381526020019081526020015f205f820151815f0155602082015181600101556040820151816002015f6101000a8154816001600160a01b0302191690836001600160a01b0316021790555060608201518160030155608082015181600401908161040c9190610b6b565b5060a0820151600582015560c0909101516006909101805460ff191691151591909117905560405133815281908a907f2eef226398f000ec33af3b3be58878356d5c7b195bff89de5067bbfe7d2ee4a39060200160405180910390a398975050505050505050565b5f828152600260208181526040808420858552909152822080546001820154928201546003830154600584015460068501546004860180548998899889986060988a9889989397929694956001600160a01b039092169490939092909160ff9091169083906104e290610ae5565b80601f016020809104026020016040519081016040528092919081815260200182805461050e90610ae5565b80156105595780601f1061053057610100808354040283529160200191610559565b820191905f5260205f20905b81548152906001019060200180831161053c57829003601f168201915b5050505050925097509750975097509750975097505092959891949750929550565b5f82815260026020908152604080832084845290915280822060015491516302c2e12f60e11b8152600481018690529092916001600160a01b031690630585c25e906024015f60405180830381865afa1580156105da573d5f803e3d5ffd5b505050506040513d5f823e601f3d908101601f1916820160405261060191908101906109fc565b50505095505050505050806001600160a01b0316336001600160a01b03161461067c5760405162461bcd60e51b815260206004820152602760248201527f4f6e6c792074656e6465722063726561746f722063616e20696e76616c6964616044820152667465206269647360c81b606482015260840161023a565b600682015460ff166106d05760405162461bcd60e51b815260206004820152601a60248201527f42696420697320616c726561647920696e76616c696461746564000000000000604482015260640161023a565b60068201805460ff19169055604051839085907fea0b4f6f63af93ff5a97a892fefe8fc05c358c98052b5664d44f8c4e97cfc5f9905f90a350505050565b600260208181525f93845260408085209091529183529120805460018201549282015460038301546004840180549395946001600160a01b039093169391929161075790610ae5565b80601f016020809104026020016040519081016040528092919081815260200182805461078390610ae5565b80156107ce5780601f106107a5576101008083540402835291602001916107ce565b820191905f5260205f20905b8154815290600101906020018083116107b157829003601f168201915b50505050600583015460069093015491929160ff16905087565b634e487b7160e01b5f52604160045260245ffd5b604051601f8201601f1916810167ffffffffffffffff81118282101715610825576108256107e8565b604052919050565b5f67ffffffffffffffff821115610846576108466107e8565b50601f01601f191660200190565b5f805f60608486031215610866575f80fd5b8335925060208401359150604084013567ffffffffffffffff81111561088a575f80fd5b8401601f8101861361089a575f80fd5b80356108ad6108a88261082d565b6107fc565b8181528760208385010111156108c1575f80fd5b816020840160208301375f602083830101528093505050509250925092565b5f80604083850312156108f1575f80fd5b50508035926020909101359150565b5f5b8381101561091a578181015183820152602001610902565b50505f910152565b87815286602082015260018060a01b038616604082015284606082015260e060808201525f84518060e08401526101006109628282860160208a01610900565b60a084019590955292151560c083015250601f909101601f1916010195945050505050565b5f60208284031215610997575f80fd5b5035919050565b5f82601f8301126109ad575f80fd5b81516109bb6108a88261082d565b8181528460208386010111156109cf575f80fd5b6109e0826020830160208701610900565b949350505050565b805180151581146109f7575f80fd5b919050565b5f805f805f805f805f6101208a8c031215610a15575f80fd5b8951985060208a015167ffffffffffffffff80821115610a33575f80fd5b610a3f8d838e0161099e565b995060408c0151915080821115610a54575f80fd5b50610a618c828d0161099e565b60608c015160808d015160a08e0151929a50909850965090506001600160a01b0381168114610a8e575f80fd5b9350610a9c60c08b016109e8565b925060e08a01519150610ab26101008b016109e8565b90509295985092959850929598565b5f60018201610ade57634e487b7160e01b5f52601160045260245ffd5b5060010190565b600181811c90821680610af957607f821691505b602082108103610b1757634e487b7160e01b5f52602260045260245ffd5b50919050565b601f821115610b66575f81815260208120601f850160051c81016020861015610b435750805b601f850160051c820191505b81811015610b6257828155600101610b4f565b5050505b505050565b815167ffffffffffffffff811115610b8557610b856107e8565b610b9981610b938454610ae5565b84610b1d565b602080601f831160018114610bcc575f8415610bb55750858301515b5f19600386901b1c1916600185901b178555610b62565b5f85815260208120601f198616915b82811015610bfa57888601518255948401946001909101908401610bdb565b5085821015610c1757878501515f19600388901b60f8161c191681555b5050505050600190811b0190555056fea26469706673582212200275a87b51af8c3bf70d56704d7552edc395b1735955e5df1095cc277b52050c64736f6c63430008140033",
  "immutableReferences": {},
  "source": "// SPDX-License-Identifier: MIT\r\npragma solidity ^0.8.0;\r\nimport \"./TenderFactory.sol\";\r\n/**\r\n * @title BiddingSystem\r\n * @dev Contract for managing bids for tenders\r\n */\r\ncontract BiddingSystem {\r\n    address public owner;\r\n    TenderFactory public tenderFactory;\r\n    \r\n    struct Bid {\r\n        uint256 id;\r\n        uint256 tenderId;\r\n        address bidder;\r\n        uint256 amount;\r\n        string proposalHash; // IPFS hash of the detailed proposal\r\n        uint256 timestamp;\r\n        bool isValid;\r\n    }\r\n    \r\n    mapping(uint256 => mapping(uint256 => Bid)) public bids; // tenderId => bidId => Bid\r\n    mapping(uint256 => uint256) public bidCountPerTender; // tenderId => bidCount\r\n    \r\n    event BidSubmitted(uint256 indexed tenderId, uint256 indexed bidId, address bidder);\r\n    event BidInvalidated(uint256 indexed tenderId, uint256 indexed bidId);\r\n    \r\n    modifier onlyOwner() {\r\n        require(msg.sender == owner, \"Only owner can call this function\");\r\n        _;\r\n    }\r\n    \r\n    constructor(address _tenderFactoryAddress) {\r\n        owner = msg.sender;\r\n        tenderFactory = TenderFactory(_tenderFactoryAddress);\r\n    }\r\n    \r\n    function submitBid(\r\n        uint256 _tenderId,\r\n        uint256 _amount,\r\n        string memory _proposalHash\r\n    ) public returns (uint256) {\r\n        // Get tender details to check validity\r\n        (\r\n            ,\r\n            ,\r\n            ,\r\n            uint256 budget,\r\n            uint256 deadline,\r\n            ,\r\n            bool isActive,\r\n            ,\r\n            bool isConcluded\r\n        ) = tenderFactory.getTender(_tenderId);\r\n        \r\n        require(isActive, \"Tender is not active\");\r\n        require(!isConcluded, \"Tender is already concluded\");\r\n        require(block.timestamp < deadline, \"Tender deadline has passed\");\r\n        require(_amount <= budget, \"Bid amount exceeds tender budget\");\r\n        \r\n        uint256 bidId = bidCountPerTender[_tenderId]++;\r\n        \r\n        bids[_tenderId][bidId] = Bid({\r\n            id: bidId,\r\n            tenderId: _tenderId,\r\n            bidder: msg.sender,\r\n            amount: _amount,\r\n            proposalHash: _proposalHash,\r\n            timestamp: block.timestamp,\r\n            isValid: true\r\n        });\r\n        \r\n        emit BidSubmitted(_tenderId, bidId, msg.sender);\r\n        return bidId;\r\n    }\r\n    \r\n    function getBid(uint256 _tenderId, uint256 _bidId) public view returns (\r\n        uint256 id,\r\n        uint256 tenderId,\r\n        address bidder,\r\n        uint256 amount,\r\n        string memory proposalHash,\r\n        uint256 timestamp,\r\n        bool isValid\r\n    ) {\r\n        Bid storage bid = bids[_tenderId][_bidId];\r\n        return (\r\n            bid.id,\r\n            bid.tenderId,\r\n            bid.bidder,\r\n            bid.amount,\r\n            bid.proposalHash,\r\n            bid.timestamp,\r\n            bid.isValid\r\n        );\r\n    }\r\n    \r\n    function invalidateBid(uint256 _tenderId, uint256 _bidId) public {\r\n        Bid storage bid = bids[_tenderId][_bidId];\r\n        \r\n        // Get tender details to check authority\r\n        (\r\n            ,\r\n            ,\r\n            ,\r\n            ,\r\n            ,\r\n            address creator,\r\n            ,\r\n            ,\r\n            \r\n        ) = tenderFactory.getTender(_tenderId);\r\n        \r\n        require(msg.sender == creator, \"Only tender creator can invalidate bids\");\r\n        require(bid.isValid, \"Bid is already invalidated\");\r\n        \r\n        bid.isValid = false;\r\n        \r\n        emit BidInvalidated(_tenderId, _bidId);\r\n    }\r\n    \r\n    function getBidCount(uint256 _tenderId) public view returns (uint256) {\r\n        return bidCountPerTender[_tenderId];\r\n    }\r\n}\r\n",
  "sourcePath": "C:\\Users\\shanmukh\\Desktop\\BTB\\smart-contracts\\contracts\\BiddingSystem.sol",
  "compiler": {
    "name": "solc",
    "version": "0.8.20+commit.a1b79de6.Emscripten.clang"
  },
  "schemaVersion": "3.4.16",
  "updatedAt": "2025-04-28T19:37:19.418Z",
  "devdoc": {
    "details": "Contract for managing bids for tenders",
    "kind": "dev",
    "methods": {},
    "title": "BiddingSystem",
    "version": 1
  },
  "userdoc": {
    "kind": "user",
    "methods": {},
    "version": 1
  }
}