{
  "contractName": "TenderFactory",
  "abi": [
    {
      "inputs": [],
      "stateMutability": "nonpayable",
      "type": "constructor"
    },
    {
      "anonymous": false,
      "inputs": [
        {
          "indexed": true,
          "internalType": "uint256",
          "name": "tenderId",
          "type": "uint256"
        },
        {
          "indexed": false,
          "internalType": "uint256",
          "name": "winningBidId",
          "type": "uint256"
        }
      ],
      "name": "TenderConcluded",
      "type": "event"
    },
    {
      "anonymous": false,
      "inputs": [
        {
          "indexed": true,
          "internalType": "uint256",
          "name": "tenderId",
          "type": "uint256"
        },
        {
          "indexed": false,
          "internalType": "string",
          "name": "title",
          "type": "string"
        },
        {
          "indexed": false,
          "internalType": "address",
          "name": "creator",
          "type": "address"
        }
      ],
      "name": "TenderCreated",
      "type": "event"
    },
    {
      "inputs": [],
      "name": "owner",
      "outputs": [
        {
          "internalType": "address",
          "name": "",
          "type": "address"
        }
      ],
      "stateMutability": "view",
      "type": "function"
    },
    {
      "inputs": [],
      "name": "tenderCount",
      "outputs": [
        {
          "internalType": "uint256",
          "name": "",
          "type": "uint256"
        }
      ],
      "stateMutability": "view",
      "type": "function"
    },
    {
      "inputs": [
        {
          "internalType": "uint256",
          "name": "",
          "type": "uint256"
        }
      ],
      "name": "tenders",
      "outputs": [
        {
          "internalType": "uint256",
          "name": "id",
          "type": "uint256"
        },
        {
          "internalType": "string",
          "name": "title",
          "type": "string"
        },
        {
          "internalType": "string",
          "name": "description",
          "type": "string"
        },
        {
          "internalType": "uint256",
          "name": "budget",
          "type": "uint256"
        },
        {
          "internalType": "uint256",
          "name": "deadline",
          "type": "uint256"
        },
        {
          "internalType": "address",
          "name": "creator",
          "type": "address"
        },
        {
          "internalType": "bool",
          "name": "isActive",
          "type": "bool"
        },
        {
          "internalType": "uint256",
          "name": "winningBidId",
          "type": "uint256"
        },
        {
          "internalType": "bool",
          "name": "isConcluded",
          "type": "bool"
        }
      ],
      "stateMutability": "view",
      "type": "function"
    },
    {
      "inputs": [
        {
          "internalType": "string",
          "name": "_title",
          "type": "string"
        },
        {
          "internalType": "string",
          "name": "_description",
          "type": "string"
        },
        {
          "internalType": "uint256",
          "name": "_budget",
          "type": "uint256"
        },
        {
          "internalType": "uint256",
          "name": "_deadline",
          "type": "uint256"
        }
      ],
      "name": "createTender",
      "outputs": [
        {
          "internalType": "uint256",
          "name": "",
          "type": "uint256"
        }
      ],
      "stateMutability": "nonpayable",
      "type": "function"
    },
    {
      "inputs": [
        {
          "internalType": "uint256",
          "name": "_tenderId",
          "type": "uint256"
        }
      ],
      "name": "getTender",
      "outputs": [
        {
          "internalType": "uint256",
          "name": "id",
          "type": "uint256"
        },
        {
          "internalType": "string",
          "name": "title",
          "type": "string"
        },
        {
          "internalType": "string",
          "name": "description",
          "type": "string"
        },
        {
          "internalType": "uint256",
          "name": "budget",
          "type": "uint256"
        },
        {
          "internalType": "uint256",
          "name": "deadline",
          "type": "uint256"
        },
        {
          "internalType": "address",
          "name": "creator",
          "type": "address"
        },
        {
          "internalType": "bool",
          "name": "isActive",
          "type": "bool"
        },
        {
          "internalType": "uint256",
          "name": "winningBidId",
          "type": "uint256"
        },
        {
          "internalType": "bool",
          "name": "isConcluded",
          "type": "bool"
        }
      ],
      "stateMutability": "view",
      "type": "function"
    },
    {
      "inputs": [
        {
          "internalType": "uint256",
          "name": "_tenderId",
          "type": "uint256"
        },
        {
          "internalType": "uint256",
          "name": "_winningBidId",
          "type": "uint256"
        }
      ],
      "name": "concludeTender",
      "outputs": [],
      "stateMutability": "nonpayable",
      "type": "function"
    }
  ],
  "bytecode": "0x608060405234801561000f575f80fd5b505f80546001600160a01b03191633178155600255610ad9806100315f395ff3fe608060405234801561000f575f80fd5b5060043610610060575f3560e01c80630585c25e146100645780631f05877614610095578063465e1def146100ac5780638da5cb5b146100bf578063aff93774146100e9578063d927ee88146100fe575b5f80fd5b610077610072366004610721565b610111565b60405161008c9998979695949392919061077b565b60405180910390f35b61009e60025481565b60405190815260200161008c565b6100776100ba366004610721565b6102a8565b5f546100d1906001600160a01b031681565b6040516001600160a01b03909116815260200161008c565b6100fc6100f73660046107e8565b61040d565b005b61009e61010c3660046108a5565b610581565b5f8181526001602081905260408220805460038201546004830154600584015460068501546007860154968601805460609889988b98899889988998899889989597949660028901956001600160a01b0384169360ff600160a01b909104811693921690889061018090610914565b80601f01602080910402602001604051908101604052809291908181526020018280546101ac90610914565b80156101f75780601f106101ce576101008083540402835291602001916101f7565b820191905f5260205f20905b8154815290600101906020018083116101da57829003601f168201915b5050505050975086805461020a90610914565b80601f016020809104026020016040519081016040528092919081815260200182805461023690610914565b80156102815780601f1061025857610100808354040283529160200191610281565b820191905f5260205f20905b81548152906001019060200180831161026457829003601f168201915b50505050509650995099509950995099509950995099509950509193959799909294969850565b600160208190525f9182526040909120805491810180546102c890610914565b80601f01602080910402602001604051908101604052809291908181526020018280546102f490610914565b801561033f5780601f106103165761010080835404028352916020019161033f565b820191905f5260205f20905b81548152906001019060200180831161032257829003601f168201915b50505050509080600201805461035490610914565b80601f016020809104026020016040519081016040528092919081815260200182805461038090610914565b80156103cb5780601f106103a2576101008083540402835291602001916103cb565b820191905f5260205f20905b8154815290600101906020018083116103ae57829003601f168201915b5050506003840154600485015460058601546006870154600790970154959692959194506001600160a01b038116935060ff600160a01b909104811692911689565b5f82815260016020526040902060058101546001600160a01b0316331461047b5760405162461bcd60e51b815260206004820181905260248201527f4f6e6c792074656e6465722063726561746f722063616e20636f6e636c75646560448201526064015b60405180910390fd5b6005810154600160a01b900460ff166104cd5760405162461bcd60e51b815260206004820152601460248201527354656e646572206973206e6f742061637469766560601b6044820152606401610472565b600781015460ff16156105225760405162461bcd60e51b815260206004820152601860248201527f54656e64657220616c726561647920636f6e636c7564656400000000000000006044820152606401610472565b60058101805460ff60a01b1916905560078101805460ff191660011790556006810182905560405182815283907f24b0d1d17d64d9d78044dbbed9302c5fb9f33faa9ad7269b41c94c01b16fb5c09060200160405180910390a2505050565b5f4282116105d15760405162461bcd60e51b815260206004820152601e60248201527f446561646c696e65206d75737420626520696e207468652066757475726500006044820152606401610472565b600280545f91826105e18361094c565b90915550604080516101208101825282815260208082018a81528284018a905260608301899052608083018890523360a0840152600160c084018190525f60e08501819052610100850181905286815292819052939091208251815590519394509092909182019061065390826109be565b506040820151600282019061066890826109be565b50606082015160038201556080820151600482015560a082015160058201805460c08501516001600160a01b039093166001600160a81b031990911617600160a01b9215159290920291909117905560e08201516006820155610100909101516007909101805460ff191691151591909117905560405181907f288c2eb47aa865e9daa5c117ccf7af2111afee680cc033a9f537aafdc6b7908a906107109089903390610a7a565b60405180910390a295945050505050565b5f60208284031215610731575f80fd5b5035919050565b5f81518084525f5b8181101561075c57602081850181015186830182015201610740565b505f602082860101526020601f19601f83011685010191505092915050565b5f6101208b83528060208401526107948184018c610738565b905082810360408401526107a8818b610738565b6060840199909952505060808101959095526001600160a01b039390931660a085015290151560c084015260e08301521515610100909101529392505050565b5f80604083850312156107f9575f80fd5b50508035926020909101359150565b634e487b7160e01b5f52604160045260245ffd5b5f82601f83011261082b575f80fd5b813567ffffffffffffffff8082111561084657610846610808565b604051601f8301601f19908116603f0116810190828211818310171561086e5761086e610808565b81604052838152866020858801011115610886575f80fd5b836020870160208301375f602085830101528094505050505092915050565b5f805f80608085870312156108b8575f80fd5b843567ffffffffffffffff808211156108cf575f80fd5b6108db8883890161081c565b955060208701359150808211156108f0575f80fd5b506108fd8782880161081c565b949794965050505060408301359260600135919050565b600181811c9082168061092857607f821691505b60208210810361094657634e487b7160e01b5f52602260045260245ffd5b50919050565b5f6001820161096957634e487b7160e01b5f52601160045260245ffd5b5060010190565b601f8211156109b9575f81815260208120601f850160051c810160208610156109965750805b601f850160051c820191505b818110156109b5578281556001016109a2565b5050505b505050565b815167ffffffffffffffff8111156109d8576109d8610808565b6109ec816109e68454610914565b84610970565b602080601f831160018114610a1f575f8415610a085750858301515b5f19600386901b1c1916600185901b1785556109b5565b5f85815260208120601f198616915b82811015610a4d57888601518255948401946001909101908401610a2e565b5085821015610a6a57878501515f19600388901b60f8161c191681555b5050505050600190811b01905550565b604081525f610a8c6040830185610738565b905060018060a01b0383166020830152939250505056fea2646970667358221220fc9166622406966f9f9443cdd0d3e536a51fecd96c893067090d7521d8aef56d64736f6c63430008140033",
  "immutableReferences": {},
  "source": "// SPDX-License-Identifier: MIT\r\npragma solidity ^0.8.0;\r\n\r\n/**\r\n * @title TenderFactory\r\n * @dev Contract for creating and managing tenders\r\n */\r\ncontract TenderFactory {\r\n    address public owner;\r\n    mapping(uint256 => Tender) public tenders;\r\n    uint256 public tenderCount;\r\n    \r\n    struct Tender {\r\n        uint256 id;\r\n        string title;\r\n        string description;\r\n        uint256 budget;\r\n        uint256 deadline;\r\n        address creator;\r\n        bool isActive;\r\n        uint256 winningBidId;\r\n        bool isConcluded;\r\n    }\r\n    \r\n    event TenderCreated(uint256 indexed tenderId, string title, address creator);\r\n    event TenderConcluded(uint256 indexed tenderId, uint256 winningBidId);\r\n    \r\n    modifier onlyOwner() {\r\n        require(msg.sender == owner, \"Only owner can call this function\");\r\n        _;\r\n    }\r\n    \r\n    constructor() {\r\n        owner = msg.sender;\r\n        tenderCount = 0;\r\n    }\r\n    \r\n    function createTender(\r\n        string memory _title,\r\n        string memory _description,\r\n        uint256 _budget,\r\n        uint256 _deadline\r\n    ) public returns (uint256) {\r\n        require(_deadline > block.timestamp, \"Deadline must be in the future\");\r\n        \r\n        uint256 tenderId = tenderCount++;\r\n        tenders[tenderId] = Tender({\r\n            id: tenderId,\r\n            title: _title,\r\n            description: _description,\r\n            budget: _budget,\r\n            deadline: _deadline,\r\n            creator: msg.sender,\r\n            isActive: true,\r\n            winningBidId: 0,\r\n            isConcluded: false\r\n        });\r\n        \r\n        emit TenderCreated(tenderId, _title, msg.sender);\r\n        return tenderId;\r\n    }\r\n    \r\n    function getTender(uint256 _tenderId) public view returns (\r\n        uint256 id,\r\n        string memory title,\r\n        string memory description,\r\n        uint256 budget,\r\n        uint256 deadline,\r\n        address creator,\r\n        bool isActive,\r\n        uint256 winningBidId,\r\n        bool isConcluded\r\n    ) {\r\n        Tender storage tender = tenders[_tenderId];\r\n        return (\r\n            tender.id,\r\n            tender.title,\r\n            tender.description,\r\n            tender.budget,\r\n            tender.deadline,\r\n            tender.creator,\r\n            tender.isActive,\r\n            tender.winningBidId,\r\n            tender.isConcluded\r\n        );\r\n    }\r\n    \r\n    function concludeTender(uint256 _tenderId, uint256 _winningBidId) public {\r\n        Tender storage tender = tenders[_tenderId];\r\n        require(msg.sender == tender.creator, \"Only tender creator can conclude\");\r\n        require(tender.isActive, \"Tender is not active\");\r\n        require(!tender.isConcluded, \"Tender already concluded\");\r\n        \r\n        tender.isActive = false;\r\n        tender.isConcluded = true;\r\n        tender.winningBidId = _winningBidId;\r\n        \r\n        emit TenderConcluded(_tenderId, _winningBidId);\r\n    }\r\n}\r\n\r\n",
  "sourcePath": "C:\\Users\\shanmukh\\Desktop\\BTB\\smart-contracts\\contracts\\TenderFactory.sol",
  "compiler": {
    "name": "solc",
    "version": "0.8.20+commit.a1b79de6.Emscripten.clang"
  },
  "schemaVersion": "3.4.16",
  "updatedAt": "2025-04-28T19:37:19.431Z",
  "devdoc": {
    "details": "Contract for creating and managing tenders",
    "kind": "dev",
    "methods": {},
    "title": "TenderFactory",
    "version": 1
  },
  "userdoc": {
    "kind": "user",
    "methods": {},
    "version": 1
  }
}